{
  "_format": "hh-sol-artifact-1",
  "contractName": "Factory",
  "sourceName": "contracts/Factory.sol",
  "abi": [
    {
      "inputs": [
        {
          "internalType": "address",
          "name": "initialOwner",
          "type": "address"
        }
      ],
      "stateMutability": "nonpayable",
      "type": "constructor"
    },
    {
      "anonymous": false,
      "inputs": [
        {
          "indexed": true,
          "internalType": "address",
          "name": "sender",
          "type": "address"
        },
        {
          "indexed": true,
          "internalType": "address",
          "name": "templateAddr",
          "type": "address"
        },
        {
          "indexed": true,
          "internalType": "address",
          "name": "deployedAddr",
          "type": "address"
        },
        {
          "indexed": false,
          "internalType": "bytes",
          "name": "abiArgs",
          "type": "bytes"
        }
      ],
      "name": "Deployed",
      "type": "event"
    },
    {
      "anonymous": false,
      "inputs": [
        {
          "indexed": true,
          "internalType": "address",
          "name": "oldGoverner",
          "type": "address"
        },
        {
          "indexed": true,
          "internalType": "address",
          "name": "newGoverner",
          "type": "address"
        }
      ],
      "name": "GovernanceChanged",
      "type": "event"
    },
    {
      "anonymous": false,
      "inputs": [
        {
          "indexed": true,
          "internalType": "address",
          "name": "sender",
          "type": "address"
        },
        {
          "indexed": false,
          "internalType": "uint256",
          "name": "fee",
          "type": "uint256"
        },
        {
          "indexed": false,
          "internalType": "uint256",
          "name": "treasury",
          "type": "uint256"
        }
      ],
      "name": "Received",
      "type": "event"
    },
    {
      "anonymous": false,
      "inputs": [
        {
          "indexed": true,
          "internalType": "string",
          "name": "templateName",
          "type": "string"
        },
        {
          "indexed": true,
          "internalType": "address",
          "name": "templateAddr",
          "type": "address"
        },
        {
          "indexed": true,
          "internalType": "address",
          "name": "governer",
          "type": "address"
        }
      ],
      "name": "TemplateAdded",
      "type": "event"
    },
    {
      "anonymous": false,
      "inputs": [
        {
          "indexed": true,
          "internalType": "address",
          "name": "sender",
          "type": "address"
        },
        {
          "indexed": false,
          "internalType": "address",
          "name": "governance",
          "type": "address"
        },
        {
          "indexed": false,
          "internalType": "uint256",
          "name": "amount",
          "type": "uint256"
        },
        {
          "indexed": false,
          "internalType": "uint256",
          "name": "treasuryAfter",
          "type": "uint256"
        }
      ],
      "name": "Withdrawn",
      "type": "event"
    },
    {
      "inputs": [
        {
          "internalType": "string",
          "name": "templateName",
          "type": "string"
        },
        {
          "internalType": "address",
          "name": "templateAddr",
          "type": "address"
        }
      ],
      "name": "addTemplate",
      "outputs": [],
      "stateMutability": "nonpayable",
      "type": "function"
    },
    {
      "inputs": [
        {
          "internalType": "string",
          "name": "templateName",
          "type": "string"
        },
        {
          "internalType": "address",
          "name": "tokenAddr",
          "type": "address"
        },
        {
          "internalType": "uint256",
          "name": "sellingAmount",
          "type": "uint256"
        },
        {
          "internalType": "bytes",
          "name": "abiArgs",
          "type": "bytes"
        }
      ],
      "name": "deploy",
      "outputs": [
        {
          "internalType": "address",
          "name": "deployedAddr",
          "type": "address"
        }
      ],
      "stateMutability": "nonpayable",
      "type": "function"
    },
    {
      "inputs": [],
      "name": "governance",
      "outputs": [
        {
          "internalType": "address",
          "name": "",
          "type": "address"
        }
      ],
      "stateMutability": "view",
      "type": "function"
    },
    {
      "inputs": [
        {
          "internalType": "address",
          "name": "newGoverner",
          "type": "address"
        }
      ],
      "name": "setGovernance",
      "outputs": [],
      "stateMutability": "nonpayable",
      "type": "function"
    },
    {
      "inputs": [
        {
          "internalType": "string",
          "name": "",
          "type": "string"
        }
      ],
      "name": "templates",
      "outputs": [
        {
          "internalType": "address",
          "name": "",
          "type": "address"
        }
      ],
      "stateMutability": "view",
      "type": "function"
    },
    {
      "inputs": [
        {
          "internalType": "address",
          "name": "to",
          "type": "address"
        },
        {
          "internalType": "uint256",
          "name": "amount",
          "type": "uint256"
        }
      ],
      "name": "withdraw",
      "outputs": [],
      "stateMutability": "nonpayable",
      "type": "function"
    },
    {
      "stateMutability": "payable",
      "type": "receive"
    }
  ],
  "bytecode": "0x608060405260006003553480156200001657600080fd5b5060405162001f9438038062001f9483398181016040528101906200003c9190620000a3565b600160008190555080600260006101000a81548173ffffffffffffffffffffffffffffffffffffffff021916908373ffffffffffffffffffffffffffffffffffffffff160217905550506200011d565b6000815190506200009d8162000103565b92915050565b600060208284031215620000b657600080fd5b6000620000c6848285016200008c565b91505092915050565b6000620000dc82620000e3565b9050919050565b600073ffffffffffffffffffffffffffffffffffffffff82169050919050565b6200010e81620000cf565b81146200011a57600080fd5b50565b611e67806200012d6000396000f3fe6080604052600436106100595760003560e01c80634c105a87146100b55780635aa6e675146100f2578063ab033ea91461011d578063b22beeda14610146578063dd3fac7c14610183578063f3fef3a3146101ac576100b0565b366100b0573373ffffffffffffffffffffffffffffffffffffffff167f74cf3d18d0ddca79038197ad0dd2c7fa5005ef61a5d1ed190e8a8a437e2fcf1034476040516100a6929190611831565b60405180910390a2005b600080fd5b3480156100c157600080fd5b506100dc60048036038101906100d79190611134565b6101d5565b6040516100e9919061157d565b60405180910390f35b3480156100fe57600080fd5b50610107610716565b604051610114919061157d565b60405180910390f35b34801561012957600080fd5b50610144600480360381019061013f9190611011565b61073c565b005b34801561015257600080fd5b5061016d6004803603810190610168919061109f565b6108fc565b60405161017a919061157d565b60405180910390f35b34801561018f57600080fd5b506101aa60048036038101906101a591906110e0565b610945565b005b3480156101b857600080fd5b506101d360048036038101906101ce919061103a565b610b75565b005b60006002600054141561021d576040517f08c379a000000000000000000000000000000000000000000000000000000000815260040161021490611811565b60405180910390fd5b60026000819055506000855111610269576040517f08c379a0000000000000000000000000000000000000000000000000000000008152600401610260906116b1565b60405180910390fd5b600073ffffffffffffffffffffffffffffffffffffffff168473ffffffffffffffffffffffffffffffffffffffff1614156102d9576040517f08c379a00000000000000000000000000000000000000000000000000000000081526004016102d0906116f1565b60405180910390fd5b60006001866040516102eb9190611551565b908152602001604051809103902060009054906101000a900473ffffffffffffffffffffffffffffffffffffffff169050600073ffffffffffffffffffffffffffffffffffffffff168173ffffffffffffffffffffffffffffffffffffffff16141561038c576040517f08c379a000000000000000000000000000000000000000000000000000000000815260040161038390611691565b60405180910390fd5b600084116103cf576040517f08c379a00000000000000000000000000000000000000000000000000000000081526004016103c690611791565b60405180910390fd5b60008573ffffffffffffffffffffffffffffffffffffffff1663dd62ed3e33306040518363ffffffff1660e01b815260040161040c929190611598565b60206040518083038186803b15801561042457600080fd5b505afa158015610438573d6000803e3d6000fd5b505050506040513d601f19601f8201168201806040525081019061045c91906111c7565b9050600081116104a1576040517f08c379a000000000000000000000000000000000000000000000000000000000815260040161049890611731565b60405180910390fd5b848110156104e4576040517f08c379a00000000000000000000000000000000000000000000000000000000081526004016104db906116d1565b60405180910390fd5b6104ee8285610e33565b92508573ffffffffffffffffffffffffffffffffffffffff166323b872dd3385886040518463ffffffff1660e01b815260040161052d939291906115c1565b602060405180830381600087803b15801561054757600080fd5b505af115801561055b573d6000803e3d6000fd5b505050506040513d601f19601f8201168201806040525081019061057f9190611076565b6105be576040517f08c379a00000000000000000000000000000000000000000000000000000000081526004016105b590611671565b60405180910390fd5b8273ffffffffffffffffffffffffffffffffffffffff1663439fab91856040518263ffffffff1660e01b81526004016105f7919061162f565b602060405180830381600087803b15801561061157600080fd5b505af1158015610625573d6000803e3d6000fd5b505050506040513d601f19601f820116820180604052508101906106499190611076565b610688576040517f08c379a000000000000000000000000000000000000000000000000000000000815260040161067f90611711565b60405180910390fd5b8273ffffffffffffffffffffffffffffffffffffffff168273ffffffffffffffffffffffffffffffffffffffff163373ffffffffffffffffffffffffffffffffffffffff167fe0c363f71c2006b5e1500c6e2f7c2e0c418ae6dd653297537b337f7f6d6eeea2876040516106fc919061162f565b60405180910390a450506001600081905550949350505050565b600260009054906101000a900473ffffffffffffffffffffffffffffffffffffffff1681565b600260009054906101000a900473ffffffffffffffffffffffffffffffffffffffff1673ffffffffffffffffffffffffffffffffffffffff163373ffffffffffffffffffffffffffffffffffffffff16146107cc576040517f08c379a00000000000000000000000000000000000000000000000000000000081526004016107c3906117f1565b60405180910390fd5b600073ffffffffffffffffffffffffffffffffffffffff168173ffffffffffffffffffffffffffffffffffffffff16141561083c576040517f08c379a000000000000000000000000000000000000000000000000000000000815260040161083390611751565b60405180910390fd5b8073ffffffffffffffffffffffffffffffffffffffff16600260009054906101000a900473ffffffffffffffffffffffffffffffffffffffff1673ffffffffffffffffffffffffffffffffffffffff167f3aaaebeb4821d6a7e5c77ece53cff0afcc56c82add2c978dbbb7f73e84cbcfd260405160405180910390a380600260006101000a81548173ffffffffffffffffffffffffffffffffffffffff021916908373ffffffffffffffffffffffffffffffffffffffff16021790555050565b6001818051602081018201805184825260208301602085012081835280955050505050506000915054906101000a900473ffffffffffffffffffffffffffffffffffffffff1681565b600260009054906101000a900473ffffffffffffffffffffffffffffffffffffffff1673ffffffffffffffffffffffffffffffffffffffff163373ffffffffffffffffffffffffffffffffffffffff16146109d5576040517f08c379a00000000000000000000000000000000000000000000000000000000081526004016109cc906117f1565b60405180910390fd5b600073ffffffffffffffffffffffffffffffffffffffff166001836040516109fd9190611551565b908152602001604051809103902060009054906101000a900473ffffffffffffffffffffffffffffffffffffffff1673ffffffffffffffffffffffffffffffffffffffff1614610a82576040517f08c379a0000000000000000000000000000000000000000000000000000000008152600401610a7990611771565b60405180910390fd5b80600183604051610a939190611551565b908152602001604051809103902060006101000a81548173ffffffffffffffffffffffffffffffffffffffff021916908373ffffffffffffffffffffffffffffffffffffffff160217905550600260009054906101000a900473ffffffffffffffffffffffffffffffffffffffff1673ffffffffffffffffffffffffffffffffffffffff168173ffffffffffffffffffffffffffffffffffffffff1683604051610b3d9190611551565b60405180910390207f723df8b5c179a677dc2dc19d7904aef24eb403b08a15218a43357705f703370660405160405180910390a45050565b600260009054906101000a900473ffffffffffffffffffffffffffffffffffffffff1673ffffffffffffffffffffffffffffffffffffffff163373ffffffffffffffffffffffffffffffffffffffff1614610c05576040517f08c379a0000000000000000000000000000000000000000000000000000000008152600401610bfc906117f1565b60405180910390fd5b60026000541415610c4b576040517f08c379a0000000000000000000000000000000000000000000000000000000008152600401610c4290611811565b60405180910390fd5b6002600081905550600073ffffffffffffffffffffffffffffffffffffffff168273ffffffffffffffffffffffffffffffffffffffff161415610cc3576040517f08c379a0000000000000000000000000000000000000000000000000000000008152600401610cba90611651565b60405180910390fd5b80471015610d06576040517f08c379a0000000000000000000000000000000000000000000000000000000008152600401610cfd906117d1565b60405180910390fd5b60008273ffffffffffffffffffffffffffffffffffffffff1682604051610d2c90611568565b60006040518083038185875af1925050503d8060008114610d69576040519150601f19603f3d011682016040523d82523d6000602084013e610d6e565b606091505b5050905080610db2576040517f08c379a0000000000000000000000000000000000000000000000000000000008152600401610da9906117b1565b60405180910390fd5b3373ffffffffffffffffffffffffffffffffffffffff167f91fb9d98b786c57d74c099ccd2beca1739e9f6a81fb49001ca465c4b7591bbe2600260009054906101000a900473ffffffffffffffffffffffffffffffffffffffff168447604051610e1e939291906115f8565b60405180910390a25060016000819055505050565b6000808360601b9050600160036000828254610e4f919061192f565b925050819055506000848433600354604051602001610e719493929190611507565b6040516020818303038152906040528051906020012090506040517f3d602d80600a3d3981f3363d3d373d3d3d363d7300000000000000000000000081528260148201527f5af43d82803e903d91602b57fd5bf300000000000000000000000000000000006028820152816037826000f5935050505092915050565b6000610f00610efb8461187f565b61185a565b905082815260208101848484011115610f1857600080fd5b610f238482856119cd565b509392505050565b6000610f3e610f39846118b0565b61185a565b905082815260208101848484011115610f5657600080fd5b610f618482856119cd565b509392505050565b600081359050610f7881611dec565b92915050565b600081519050610f8d81611e03565b92915050565b600082601f830112610fa457600080fd5b8135610fb4848260208601610eed565b91505092915050565b600082601f830112610fce57600080fd5b8135610fde848260208601610f2b565b91505092915050565b600081359050610ff681611e1a565b92915050565b60008151905061100b81611e1a565b92915050565b60006020828403121561102357600080fd5b600061103184828501610f69565b91505092915050565b6000806040838503121561104d57600080fd5b600061105b85828601610f69565b925050602061106c85828601610fe7565b9150509250929050565b60006020828403121561108857600080fd5b600061109684828501610f7e565b91505092915050565b6000602082840312156110b157600080fd5b600082013567ffffffffffffffff8111156110cb57600080fd5b6110d784828501610fbd565b91505092915050565b600080604083850312156110f357600080fd5b600083013567ffffffffffffffff81111561110d57600080fd5b61111985828601610fbd565b925050602061112a85828601610f69565b9150509250929050565b6000806000806080858703121561114a57600080fd5b600085013567ffffffffffffffff81111561116457600080fd5b61117087828801610fbd565b945050602061118187828801610f69565b935050604061119287828801610fe7565b925050606085013567ffffffffffffffff8111156111af57600080fd5b6111bb87828801610f93565b91505092959194509250565b6000602082840312156111d957600080fd5b60006111e784828501610ffc565b91505092915050565b6111f981611985565b82525050565b61121061120b82611985565b611a40565b82525050565b6000611221826118e1565b61122b81856118f7565b935061123b8185602086016119dc565b61124481611acc565b840191505092915050565b600061125a826118e1565b6112648185611908565b93506112748185602086016119dc565b80840191505092915050565b600061128b826118ec565b6112958185611924565b93506112a58185602086016119dc565b80840191505092915050565b60006112be601683611913565b91506112c982611aea565b602082019050919050565b60006112e1601483611913565b91506112ec82611b13565b602082019050919050565b6000611304601d83611913565b915061130f82611b3c565b602082019050919050565b6000611327600d83611913565b915061133282611b65565b602082019050919050565b600061134a601883611913565b915061135582611b8e565b602082019050919050565b600061136d601983611913565b915061137882611bb7565b602082019050919050565b6000611390602983611913565b915061139b82611be0565b604082019050919050565b60006113b3602583611913565b91506113be82611c2f565b604082019050919050565b60006113d6600083611908565b91506113e182611c7e565b600082019050919050565b60006113f9601783611913565b915061140482611c81565b602082019050919050565b600061141c602483611913565b915061142782611caa565b604082019050919050565b600061143f603183611913565b915061144a82611cf9565b604082019050919050565b6000611462600f83611913565b915061146d82611d48565b602082019050919050565b6000611485601183611913565b915061149082611d71565b602082019050919050565b60006114a8601883611913565b91506114b382611d9a565b602082019050919050565b60006114cb601f83611913565b91506114d682611dc3565b602082019050919050565b6114ea816119c3565b82525050565b6115016114fc826119c3565b611a64565b82525050565b600061151382876111ff565b601482019150611523828661124f565b915061152f82856111ff565b60148201915061153f82846114f0565b60208201915081905095945050505050565b600061155d8284611280565b915081905092915050565b6000611573826113c9565b9150819050919050565b600060208201905061159260008301846111f0565b92915050565b60006040820190506115ad60008301856111f0565b6115ba60208301846111f0565b9392505050565b60006060820190506115d660008301866111f0565b6115e360208301856111f0565b6115f060408301846114e1565b949350505050565b600060608201905061160d60008301866111f0565b61161a60208301856114e1565b61162760408301846114e1565b949350505050565b600060208201905081810360008301526116498184611216565b905092915050565b6000602082019050818103600083015261166a816112b1565b9050919050565b6000602082019050818103600083015261168a816112d4565b9050919050565b600060208201905081810360008301526116aa816112f7565b9050919050565b600060208201905081810360008301526116ca8161131a565b9050919050565b600060208201905081810360008301526116ea8161133d565b9050919050565b6000602082019050818103600083015261170a81611360565b9050919050565b6000602082019050818103600083015261172a81611383565b9050919050565b6000602082019050818103600083015261174a816113a6565b9050919050565b6000602082019050818103600083015261176a816113ec565b9050919050565b6000602082019050818103600083015261178a8161140f565b9050919050565b600060208201905081810360008301526117aa81611432565b9050919050565b600060208201905081810360008301526117ca81611455565b9050919050565b600060208201905081810360008301526117ea81611478565b9050919050565b6000602082019050818103600083015261180a8161149b565b9050919050565b6000602082019050818103600083015261182a816114be565b9050919050565b600060408201905061184660008301856114e1565b61185360208301846114e1565b9392505050565b6000611864611875565b90506118708282611a0f565b919050565b6000604051905090565b600067ffffffffffffffff82111561189a57611899611a9d565b5b6118a382611acc565b9050602081019050919050565b600067ffffffffffffffff8211156118cb576118ca611a9d565b5b6118d482611acc565b9050602081019050919050565b600081519050919050565b600081519050919050565b600082825260208201905092915050565b600081905092915050565b600082825260208201905092915050565b600081905092915050565b600061193a826119c3565b9150611945836119c3565b9250827fffffffffffffffffffffffffffffffffffffffffffffffffffffffffffffffff0382111561197a57611979611a6e565b5b828201905092915050565b6000611990826119a3565b9050919050565b60008115159050919050565b600073ffffffffffffffffffffffffffffffffffffffff82169050919050565b6000819050919050565b82818337600083830152505050565b60005b838110156119fa5780820151818401526020810190506119df565b83811115611a09576000848401525b50505050565b611a1882611acc565b810181811067ffffffffffffffff82111715611a3757611a36611a9d565b5b80604052505050565b6000611a4b82611a52565b9050919050565b6000611a5d82611add565b9050919050565b6000819050919050565b7f4e487b7100000000000000000000000000000000000000000000000000000000600052601160045260246000fd5b7f4e487b7100000000000000000000000000000000000000000000000000000000600052604160045260246000fd5b6000601f19601f8301169050919050565b60008160601b9050919050565b7f446f6e2774206469736361726420747265617572792100000000000000000000600082015250565b7f5472616e7366657246726f6d206661696c65642e000000000000000000000000600082015250565b7f4e6f20737563682074656d706c61746520696e20746865206c6973742e000000600082015250565b7f456d70747920737472696e672e00000000000000000000000000000000000000600082015250565b7f616c6c6f77616e6365206973206e6f7420656e6f7567682e0000000000000000600082015250565b7f476f2077697468206e6f6e206e756c6c20616464726573732e00000000000000600082015250565b7f4661696c656420746f20696e697469616c697a652074686520636c6f6e65642060008201527f636f6e74726163742e0000000000000000000000000000000000000000000000602082015250565b7f596f75206861766520746f20617070726f7665204552432d323020746f20646560008201527f706c6f792e000000000000000000000000000000000000000000000000000000602082015250565b50565b7f676f7665726e65722063616e6e6f74206265206e756c6c000000000000000000600082015250565b7f546869732074656d706c617465206e616d6520697320616c726561647920746160008201527f6b656e2e00000000000000000000000000000000000000000000000000000000602082015250565b7f486176696e6720616e206576656e7420776974686f757420746f6b656e73206160008201527f7265206e6f74207065726d69747465642e000000000000000000000000000000602082015250565b7f7472616e73666572206661696c65640000000000000000000000000000000000600082015250565b7f416d6f756e7420697320746f6f20626967000000000000000000000000000000600082015250565b7f596f75277265206e6f742074686520676f7665726e65722e0000000000000000600082015250565b7f5265656e7472616e637947756172643a207265656e7472616e742063616c6c00600082015250565b611df581611985565b8114611e0057600080fd5b50565b611e0c81611997565b8114611e1757600080fd5b50565b611e23816119c3565b8114611e2e57600080fd5b5056fea2646970667358221220bc039465bdcb3192b5697ac82ab69d52fa525a42f5e2a00334df43ab7f1063d664736f6c63430008030033",
  "linkReferences": {},
  "deployedLinkReferences": {}
}