{
  "contractName": "TXJPInitialOffering",
  "abi": [
    {
      "inputs": [
        {
          "internalType": "contract IERC20",
          "name": "_TXJP",
          "type": "address"
        }
      ],
      "stateMutability": "nonpayable",
      "type": "constructor"
    },
    {
      "anonymous": false,
      "inputs": [
        {
          "indexed": true,
          "internalType": "address",
          "name": "account",
          "type": "address"
        },
        {
          "indexed": false,
          "internalType": "uint256",
          "name": "userShare",
          "type": "uint256"
        },
        {
          "indexed": false,
          "internalType": "uint256",
          "name": "TXJPAmount",
          "type": "uint256"
        }
      ],
      "name": "Claimed",
      "type": "event"
    },
    {
      "anonymous": false,
      "inputs": [
        {
          "indexed": true,
          "internalType": "address",
          "name": "previousOwner",
          "type": "address"
        },
        {
          "indexed": true,
          "internalType": "address",
          "name": "newOwner",
          "type": "address"
        }
      ],
      "name": "OwnershipTransferred",
      "type": "event"
    },
    {
      "anonymous": false,
      "inputs": [
        {
          "indexed": true,
          "internalType": "address",
          "name": "account",
          "type": "address"
        },
        {
          "indexed": false,
          "internalType": "uint256",
          "name": "amount",
          "type": "uint256"
        }
      ],
      "name": "Received",
      "type": "event"
    },
    {
      "inputs": [],
      "name": "END",
      "outputs": [
        {
          "internalType": "uint256",
          "name": "",
          "type": "uint256"
        }
      ],
      "stateMutability": "view",
      "type": "function",
      "constant": true
    },
    {
      "inputs": [],
      "name": "MINIMAL_PROVIDE_AMOUNT",
      "outputs": [
        {
          "internalType": "uint256",
          "name": "",
          "type": "uint256"
        }
      ],
      "stateMutability": "view",
      "type": "function",
      "constant": true
    },
    {
      "inputs": [],
      "name": "START",
      "outputs": [
        {
          "internalType": "uint256",
          "name": "",
          "type": "uint256"
        }
      ],
      "stateMutability": "view",
      "type": "function",
      "constant": true
    },
    {
      "inputs": [],
      "name": "TOTAL_DISTRIBUTE_AMOUNT",
      "outputs": [
        {
          "internalType": "uint256",
          "name": "",
          "type": "uint256"
        }
      ],
      "stateMutability": "view",
      "type": "function",
      "constant": true
    },
    {
      "inputs": [],
      "name": "TXJP",
      "outputs": [
        {
          "internalType": "contract IERC20",
          "name": "",
          "type": "address"
        }
      ],
      "stateMutability": "view",
      "type": "function",
      "constant": true
    },
    {
      "inputs": [],
      "name": "owner",
      "outputs": [
        {
          "internalType": "address",
          "name": "",
          "type": "address"
        }
      ],
      "stateMutability": "view",
      "type": "function",
      "constant": true
    },
    {
      "inputs": [
        {
          "internalType": "address",
          "name": "",
          "type": "address"
        }
      ],
      "name": "provided",
      "outputs": [
        {
          "internalType": "uint256",
          "name": "",
          "type": "uint256"
        }
      ],
      "stateMutability": "view",
      "type": "function",
      "constant": true
    },
    {
      "inputs": [],
      "name": "renounceOwnership",
      "outputs": [],
      "stateMutability": "nonpayable",
      "type": "function"
    },
    {
      "inputs": [],
      "name": "totalProvided",
      "outputs": [
        {
          "internalType": "uint256",
          "name": "",
          "type": "uint256"
        }
      ],
      "stateMutability": "view",
      "type": "function",
      "constant": true
    },
    {
      "inputs": [
        {
          "internalType": "address",
          "name": "newOwner",
          "type": "address"
        }
      ],
      "name": "transferOwnership",
      "outputs": [],
      "stateMutability": "nonpayable",
      "type": "function"
    },
    {
      "stateMutability": "payable",
      "type": "receive",
      "payable": true
    },
    {
      "inputs": [],
      "name": "claim",
      "outputs": [],
      "stateMutability": "nonpayable",
      "type": "function"
    },
    {
      "inputs": [],
      "name": "withdrawProvidedETH",
      "outputs": [],
      "stateMutability": "nonpayable",
      "type": "function"
    },
    {
      "inputs": [],
      "name": "withdrawTXJP",
      "outputs": [],
      "stateMutability": "nonpayable",
      "type": "function"
    },
    {
      "inputs": [],
      "name": "withdrawUnclaimedTXJP",
      "outputs": [],
      "stateMutability": "nonpayable",
      "type": "function"
    }
  ],
  "bytecode": "0x6080604052600060015534801561001557600080fd5b506040516110133803806110138339818101604052602081101561003857600080fd5b505160006100446100b3565b600080546001600160a01b0319166001600160a01b0383169081178255604051929350917f8be0079c531659141344cd1fd0a4f28419497f9722a3daafe3b4186f6b6457e0908290a350600380546001600160a01b0319166001600160a01b03929092169190911790556100b7565b3390565b610f4d806100c66000396000f3fe6080604052600436106100e15760003560e01c80638da5cb5b1161007f578063ba9a061a11610059578063ba9a061a14610317578063e43608d81461032c578063efe7a50414610341578063f2fde38b14610356576101f2565b80638da5cb5b146102ba5780639ddb9ee1146102cf578063aa1cf2a214610302576101f2565b8063715018a6116100bb578063715018a61461024a57806371feef691461025f57806378032cce1461027457806379f0c5ed146102a5576101f2565b806302e3cb0b146101f75780632a0722a61461021e5780634e71d92d14610233576101f2565b366101f257426360e7bbb0111561013f576040805162461bcd60e51b815260206004820181905260248201527f546865206f66666572696e6720686173206e6f74207374617274656420796574604482015290519081900360640190fd5b6360eefbf0421115610198576040805162461bcd60e51b815260206004820152601e60248201527f546865206f66666572696e672068617320616c726561647920656e6465640000604482015290519081900360640190fd5b6001805434908101909155336000818152600260209081526040918290208054850190558151938452905191927f88a5966d370b9919b20f3e2c13ff65706f196a4e32cc2c12bf57088f88525874929081900390910190a2005b600080fd5b34801561020357600080fd5b5061020c610389565b60408051918252519081900360200190f35b34801561022a57600080fd5b5061020c61038f565b34801561023f57600080fd5b5061024861039c565b005b34801561025657600080fd5b506102486104cd565b34801561026b57600080fd5b5061024861056f565b34801561028057600080fd5b506102896106b6565b604080516001600160a01b039092168252519081900360200190f35b3480156102b157600080fd5b506102486106c5565b3480156102c657600080fd5b506102896107be565b3480156102db57600080fd5b5061020c600480360360208110156102f257600080fd5b50356001600160a01b03166107cd565b34801561030e57600080fd5b5061020c6107df565b34801561032357600080fd5b5061020c6107e5565b34801561033857600080fd5b506102486107ed565b34801561034d57600080fd5b5061020c610927565b34801561036257600080fd5b506102486004803603602081101561037957600080fd5b50356001600160a01b031661092f565b60015481565b68056bc75e2d6310000081565b6360eefbf042116103ac57600080fd5b336000908152600260205260409020546103c557600080fd5b336000908152600260205260408120805491905560015468056bc75e2d63100000116104615760015460009061040790610401618ca085610a27565b90610a89565b600354909150610421906001600160a01b03163383610acb565b6040805183815260208101839052815133927f987d620f307ff6b94d58743cb7a7509f24071586a77759b77c2d4e29f75a2f9a928290030190a2506104ca565b604051339082156108fc029083906000818181858888f1935050505015801561048e573d6000803e3d6000fd5b506040805182815260006020820152815133927f987d620f307ff6b94d58743cb7a7509f24071586a77759b77c2d4e29f75a2f9a928290030190a25b50565b6104d5610b22565b6000546001600160a01b03908116911614610525576040805162461bcd60e51b81526020600482018190526024820152600080516020610ece833981519152604482015290519081900360640190fd5b600080546040516001600160a01b03909116907f8be0079c531659141344cd1fd0a4f28419497f9722a3daafe3b4186f6b6457e0908390a3600080546001600160a01b0319169055565b610577610b22565b6000546001600160a01b039081169116146105c7576040805162461bcd60e51b81526020600482018190526024820152600080516020610ece833981519152604482015290519081900360640190fd5b4263611688f01061061f576040805162461bcd60e51b815260206004820152601a60248201527f5769746864726177616c20756e617661696c61626c6520796574000000000000604482015290519081900360640190fd5b6106b461062a6107be565b600354604080516370a0823160e01b815230600482015290516001600160a01b03909216916370a0823191602480820192602092909190829003018186803b15801561067557600080fd5b505afa158015610689573d6000803e3d6000fd5b505050506040513d602081101561069f57600080fd5b50516003546001600160a01b03169190610acb565b565b6003546001600160a01b031681565b6106cd610b22565b6000546001600160a01b0390811691161461071d576040805162461bcd60e51b81526020600482018190526024820152600080516020610ece833981519152604482015290519081900360640190fd5b426360eefbf010610775576040805162461bcd60e51b815260206004820152601e60248201527f546865206f66666572696e67206d75737420626520636f6d706c657465640000604482015290519081900360640190fd5b68056bc75e2d631000006001541061061f5760405162461bcd60e51b8152600401808060200182810382526026815260200180610e5d6026913960400191505060405180910390fd5b6000546001600160a01b031690565b60026020526000908152604090205481565b618ca081565b6360e7bbb081565b6107f5610b22565b6000546001600160a01b03908116911614610845576040805162461bcd60e51b81526020600482018190526024820152600080516020610ece833981519152604482015290519081900360640190fd5b426360eefbf01061089d576040805162461bcd60e51b815260206004820152601e60248201527f546865206f66666572696e67206d75737420626520636f6d706c657465640000604482015290519081900360640190fd5b68056bc75e2d6310000060015410156108e75760405162461bcd60e51b815260040180806020018281038252602a815260200180610e83602a913960400191505060405180910390fd5b6108ef6107be565b6001600160a01b03166108fc479081150290604051600060405180830381858888f193505050501580156104ca573d6000803e3d6000fd5b6360eefbf081565b610937610b22565b6000546001600160a01b03908116911614610987576040805162461bcd60e51b81526020600482018190526024820152600080516020610ece833981519152604482015290519081900360640190fd5b6001600160a01b0381166109cc5760405162461bcd60e51b8152600401808060200182810382526026815260200180610e376026913960400191505060405180910390fd5b600080546040516001600160a01b03808516939216917f8be0079c531659141344cd1fd0a4f28419497f9722a3daafe3b4186f6b6457e091a3600080546001600160a01b0319166001600160a01b0392909216919091179055565b600082610a3657506000610a83565b82820282848281610a4357fe5b0414610a805760405162461bcd60e51b8152600401808060200182810382526021815260200180610ead6021913960400191505060405180910390fd5b90505b92915050565b6000610a8083836040518060400160405280601a81526020017f536166654d6174683a206469766973696f6e206279207a65726f000000000000815250610b26565b604080516001600160a01b038416602482015260448082018490528251808303909101815260649091019091526020810180516001600160e01b031663a9059cbb60e01b179052610b1d908490610bc8565b505050565b3390565b60008183610bb25760405162461bcd60e51b81526004018080602001828103825283818151815260200191508051906020019080838360005b83811015610b77578181015183820152602001610b5f565b50505050905090810190601f168015610ba45780820380516001836020036101000a031916815260200191505b509250505060405180910390fd5b506000838581610bbe57fe5b0495945050505050565b6060610c1d826040518060400160405280602081526020017f5361666545524332303a206c6f772d6c6576656c2063616c6c206661696c6564815250856001600160a01b0316610c799092919063ffffffff16565b805190915015610b1d57808060200190516020811015610c3c57600080fd5b5051610b1d5760405162461bcd60e51b815260040180806020018281038252602a815260200180610eee602a913960400191505060405180910390fd5b6060610c888484600085610c90565b949350505050565b6060610c9b85610dfd565b610cec576040805162461bcd60e51b815260206004820152601d60248201527f416464726573733a2063616c6c20746f206e6f6e2d636f6e7472616374000000604482015290519081900360640190fd5b60006060866001600160a01b031685876040518082805190602001908083835b60208310610d2b5780518252601f199092019160209182019101610d0c565b6001836020036101000a03801982511681845116808217855250505050505090500191505060006040518083038185875af1925050503d8060008114610d8d576040519150601f19603f3d011682016040523d82523d6000602084013e610d92565b606091505b50915091508115610da6579150610c889050565b805115610db65780518082602001fd5b60405162461bcd60e51b8152602060048201818152865160248401528651879391928392604401919085019080838360008315610b77578181015183820152602001610b5f565b6000813f7fc5d2460186f7233c927e7db2dcc703c0e500b653ca82273b7bfad8045d85a470818114801590610c8857505015159291505056fe4f776e61626c653a206e6577206f776e657220697320746865207a65726f206164647265737354686520726571756972656420616d6f756e7420686173206265656e2070726f76696465642154686520726571756972656420616d6f756e7420686173206e6f74206265656e2070726f766964656421536166654d6174683a206d756c7469706c69636174696f6e206f766572666c6f774f776e61626c653a2063616c6c6572206973206e6f7420746865206f776e65725361666545524332303a204552433230206f7065726174696f6e20646964206e6f742073756363656564a2646970667358221220eeee570437b0f08db9dc74eaf34af5d4a70762a2bb5e6b9bdcf5306c7279863e64736f6c634300060c0033",
  "immutableReferences": {},
  "source": "pragma solidity 0.6.12;\n\n/**\n * SPDX-License-Identifier: GPL-3.0-or-later\n * TXJP\n * Copyright (C) 2020 TXJP Protocol\n *\n * This program is free software: you can redistribute it and/or modify\n * it under the terms of the GNU General Public License as published by\n * the Free Software Foundation, either version 3 of the License, or\n * (at your option) any later version.\n *\n * This program is distributed in the hope that it will be useful,\n * but WITHOUT ANY WARRANTY; without even the implied warranty of\n * MERCHANTABILITY or FITNESS FOR A PARTICULAR PURPOSE.  See the\n * GNU General Public License for more details.\n *\n * You should have received a copy of the GNU General Public License\n * along with this program.  If not, see <http://www.gnu.org/licenses/>.\n */\n\nimport \"@openzeppelin/contracts/token/ERC20/SafeERC20.sol\";\nimport \"@openzeppelin/contracts/access/Ownable.sol\";\n\n\n/**\n * @author 0xMotoko\n * @title TXJP Initial Offering\n * @notice some description\n */\ncontract TXJPInitialOffering is Ownable {\n    using SafeERC20 for IERC20;\n    using SafeMath for uint;\n\n    event Claimed(address indexed account, uint userShare, uint TXJPAmount);\n    event Received(address indexed account, uint amount);\n\n    uint public constant START = 1625799600; //1day = 86400\n    uint public constant END = START + 5 days + 12 hours;\n    uint public constant TOTAL_DISTRIBUTE_AMOUNT = 36000;\n    uint public constant MINIMAL_PROVIDE_AMOUNT = 100 ether;\n    uint public totalProvided = 0;\n    mapping(address => uint) public provided;\n    IERC20 public TXJP;\n\n    constructor(IERC20 _TXJP) public {\n        TXJP = _TXJP;\n    }\n\n    receive() external payable {\n        require(START <= block.timestamp, \"The offering has not started yet\");\n        require(block.timestamp <= END, \"The offering has already ended\");\n        totalProvided += msg.value;\n        provided[msg.sender] += msg.value;\n        emit Received(msg.sender, msg.value);\n    }\n\n    function claim() external {\n        require(block.timestamp > END);\n        require(provided[msg.sender] > 0);\n\n        uint userShare = provided[msg.sender];\n        provided[msg.sender] = 0;\n\n        if(totalProvided >= MINIMAL_PROVIDE_AMOUNT) {\n            uint TXJPAmount = TOTAL_DISTRIBUTE_AMOUNT\n                .mul(userShare)\n                .div(totalProvided);\n            TXJP.safeTransfer(msg.sender, TXJPAmount);\n            emit Claimed(msg.sender, userShare, TXJPAmount);\n        } else {\n            msg.sender.transfer(userShare);\n            emit Claimed(msg.sender, userShare, 0);\n        }\n    }\n\n    function withdrawProvidedETH() external onlyOwner {\n        require(END < block.timestamp, \"The offering must be completed\");\n        require(\n            totalProvided >= MINIMAL_PROVIDE_AMOUNT,\n            \"The required amount has not been provided!\"\n        );\n        payable(owner()).transfer(address(this).balance);\n    }\n\n    function withdrawTXJP() external onlyOwner {\n        require(END < block.timestamp, \"The offering must be completed\");\n        require(\n            totalProvided < MINIMAL_PROVIDE_AMOUNT,\n            \"The required amount has been provided!\"\n        );\n        TXJP.safeTransfer(owner(), TXJP.balanceOf(address(this)));\n    }\n\n    function withdrawUnclaimedTXJP() external onlyOwner {\n        require(END + 30 days < block.timestamp, \"Withdrawal unavailable yet\");\n        TXJP.safeTransfer(owner(), TXJP.balanceOf(address(this)));\n    }\n}\n",
  "sourcePath": "/Users/T2/Develop/dapps/TXJP_IBCO/contracts/InitialOffering/TXJPInitialOffering.sol",
  "compiler": {
    "name": "solc",
    "version": "0.6.12+commit.27d51765.Emscripten.clang"
  },
  "schemaVersion": "3.2.4",
  "updatedAt": "2021-06-09T07:19:45.373Z",
  "networkType": "ethereum",
  "devdoc": {
    "author": "0xMotoko",
    "kind": "dev",
    "methods": {
      "owner()": {
        "details": "Returns the address of the current owner."
      },
      "renounceOwnership()": {
        "details": "Leaves the contract without owner. It will not be possible to call `onlyOwner` functions anymore. Can only be called by the current owner. NOTE: Renouncing ownership will leave the contract without an owner, thereby removing any functionality that is only available to the owner."
      },
      "transferOwnership(address)": {
        "details": "Transfers ownership of the contract to a new account (`newOwner`). Can only be called by the current owner."
      }
    },
    "title": "TXJP Initial Offering",
    "version": 1
  },
  "userdoc": {
    "kind": "user",
    "methods": {},
    "notice": "some description",
    "version": 1
  }
}